:100000000C942A000C943C000C943C000C943C0092
:100010000C943C000C943C000C943C000C943C0070
:100020000C943C000C943C000C943C000C943C0060
:100030000C943C000C943C000C943C000C943C0050
:100040000C943C000C943C000C943C000C943C0040
:100050000C943C0011241FBECFE5D8E0DEBFCDBF1D
:1000600020E0A0E6B0E001C01D92A136B207E1F7A2
:100070000E943E000C94AE010C94000041E068E048
:1000800080E895E20E949D0141E060E081E40E94E9
:100090005B000E94AA0180936000882331F041E058
:1000A00060E081E40E94D500F4CF40E060E081E4AC
:1000B0000E94D500EECF823431F118F4813439F04A
:1000C00008958334E1F1843409F454C00895411152
:1000D0000CC02AB381E090E002C0880F991F6A9596
:1000E000E2F7809582238ABB0895413009F05CC015
:1000F0002AB381E090E002C0880F991F6A95E2F769
:10010000822B8ABB089541110CC027B381E090E097
:1001100002C0880F991F6A95E2F78095822387BBFA
:100120000895413009F040C027B381E090E002C05B
:10013000880F991F6A95E2F7822B87BB08954111BA
:100140000CC024B381E090E002C0880F991F6A952B
:10015000E2F78095822384BB0895413029F524B3CA
:1001600081E090E002C0880F991F6A95E2F7822B28
:1001700084BB089541110CC021B381E090E002C01E
:10018000880F991F6A95E2F78095822381BB0895B5
:10019000413051F421B381E090E002C0880F991FF3
:1001A0006A95E2F7822B81BB0895823431F118F40D
:1001B000813439F008958334E1F1843409F454C072
:1001C000089541110CC02BB381E090E002C0880F6C
:1001D000991F6A95E2F7809582238BBB0895413081
:1001E00009F05CC02BB381E090E002C0880F991F3A
:1001F0006A95E2F7822B8BBB089541110CC028B39E
:1002000081E090E002C0880F991F6A95E2F780951F
:10021000822388BB0895413009F040C028B381E0B3
:1002200090E002C0880F991F6A95E2F7822B88BB85
:10023000089541110CC025B381E090E002C0880F01
:10024000991F6A95E2F78095822385BB0895413016
:1002500029F525B381E090E002C0880F991F6A95C7
:10026000E2F7822B85BB089541110CC022B381E0D7
:1002700090E002C0880F991F6A95E2F7809582236B
:1002800082BB0895413051F422B381E090E002C076
:10029000880F991F6A95E2F7822B82BB089590BD63
:1002A00089B908958730F9F028F4853041F0863017
:1002B00081F036C0883009F1893049F131C080B50C
:1002C0008D7F80BD80B58B7F80BD8AB18B7F8AB9E1
:1002D00027C080B5826080BD80B58B7F80BD8AB12C
:1002E0008B7F8AB91DC080B58D7F80BD80B584604D
:1002F00080BD8AB18B7F8AB913C080B5826080BD12
:1003000080B5846080BD8AB18B7F8AB909C080B511
:10031000826080BD80B5846080BD8AB184608AB906
:10032000613019F0623029F0089580B5877F80BD73
:10033000089580B5886080BD08950E944F018AB1FC
:1003400080618AB98AB188608AB962E088E00E94D7
:10035000520108955F9BFECF8CB10895F894FFCFB2
:00000001FF
