S00D00004D43555F322E73726563A1
S11300000C946B000C9488000C9488000C94880069
S11300100C9488000C9488000C9488000C9488003C
S11300200C9488000C9488000C9488000C9488002C
S11300300C9488000C9488000C9488000C9488001C
S11300400C9488000C9488000C9488000C9488000C
S11300500C94880007634236B79BD8A71A396856B0
S113006018AEBAAB558C1D3CB7CC5763BD6DEDFDD6
S1130070753EF6177231BF000000803F0800000093
S1130080BE922449123EABAAAA2ABECDCCCC4C3E89
S113009000000080BEABAAAAAA3E00000000BF0078
S11300A00000803F0000000000084178D3BB438774
S11300B0D1133D190E3CC3BD4282AD2B3E68EC8288
S11300C076BED98FE1A93E4C80EFFFBE01C4FF7F0D
S11300D03F000000000011241FBECFE5D8E0DEBFC2
S11300E0CDBF10E0A0E6B0E0EAE4FAE002C005907B
S11300F00D92A036B107D9F720E0A0E6B0E001C028
S11301001D92A036B207E1F70E94AB000C942305C0
S11301100C9400000E94CE0008950F931F93CF9378
S11301208C0186EA0E94EE0080E00E94050188E0CE
S11301300E940501C0E003C00E941001CF5FF801D6
S1130140EC0FF11D80818111F7CF0E941B01CF912B
S11301501F910F910895CF93DF93CDB7DEB76097CA
S11301600FB6F894DEBF0FBECDBFFE01319680E11D
S1130170DF011D928A95E9F78FEF87BB0E948A0001
S11301800E946F01CE0101960E9482018981882319
S1130190C9F3CE0101960E948D00F4CF11B861B16C
S11301A0637070E080E090E00E94A5029B01AC01C6
S11301B060E070E080E890E40E9431039B01AC01B0
S11301C00E9496019B01AC0160E070E080E89FE42E
S11301D00E9402020E94740260B9089596B7906862
S11301E096BF96B7906296BF96B7946096BF06B6D0
S11301F007FEFDCF83B986B7806886BF86B7846063
S113020086BF06B607FEFDCF089583B986B780681A
S113021086BF86B7846086BF06B607FEFDCF089505
S113022083B986B7806886BF86B7846086BF06B602
S113023007FEFDCF089584E986BF06B604FCFDCF12
S1130240089590BD89B908958730F9F028F4853070
S113025041F0863081F036C0883009F1893049F1A7
S113026031C080B58D7F80BD80B58B7F80BD8AB164
S11302708B7F8AB927C080B5826080BD80B58B7FB3
S113028080BD8AB18B7F8AB91DC080B58D7F80BD4A
S113029080B5846080BD8AB18B7F8AB913C080B574
S11302A0826080BD80B5846080BD8AB18B7F8AB94D
S11302B009C080B5826080BD80B5846080BD8AB18C
S11302C084608AB9613019F0623029F0089580B5EC
S11302D0877F80BD089580B5886080BD089583E3DD
S11302E090E00E9421018AB180618AB98AB1886054
S11302F08AB962E088E00E94240108955F9BFECFE2
S11303008CB108950F931F93CF938C01C0E00E948A
S11303107E01F801EC0FF11D8083882311F0CF5F7B
S1130320F6CFCF911F910F9108955058BB27AA275C
S11303300E94AD010C94F7020E94E90238F00E9479
S1130340F00220F039F49F3F19F426F40C94E602ED
S11303500EF4E095E7FB0C94E002E92F0E940803F9
S113036058F3BA17620773078407950720F079F4E6
S1130370A6F50C942A030EF4E0950B2EBA2FA02DAB
S11303800B01B90190010C01CA01A0011124FF273E
S1130390591B99F0593F50F4503E68F11A16F04039
S11303A0A22F232F342F4427585FF3CF4695379538
S11303B02795A795F0405395C9F77EF41F16BA0BFD
S11303C0620B730B840BBAF09150A1F0FF0FBB1FAB
S11303D0661F771F881FC2F70EC0BA0F621F731FF4
S11303E0841F48F4879577956795B795F7959E3F51
S11303F008F0B0CF9395880F08F09927EE0F9795E2
S1130400879508950E9416020C94F7020E94F00248
S113041058F00E94E90240F029F45F3F29F00C945F
S1130420E00251110C942B030C94E6020E94080381
S113043068F39923B1F3552391F3951B550BBB270F
S1130440AA2762177307840738F09F5F5F4F220F54
S1130450331F441FAA1FA9F335D00E2E3AF0E0E84B
S113046032D091505040E695001CCAF72BD0FE2F95
S113047029D0660F771F881FBB1F26173707480729
S1130480AB07B0E809F0BB0B802DBF01FF279358E1
S11304905F4F3AF09E3F510578F00C94E0020C94C3
S11304A02B035F3FE4F3983ED4F3869577956795E5
S11304B0B795F7959F5FC9F7880F911D9695879516
S11304C097F90895E1E0660F771F881FBB1F621735
S11304D073078407BA0720F0621B730B840BBA0BF3
S11304E0EE1F88F7E09508950E94100388F09F5747
S11304F098F0B92F9927B751B0F0E1F0660F771F44
S1130500881F991F1AF0BA95C9F714C0B13091F039
S11305100E942A03B1E008950C942A03672F782FD0
S11305208827B85F39F0B93FCCF3869577956795FE
S1130530B395D9F73EF490958095709561957F4F6A
S11305408F4F9F4F0895E89409C097FB3EF4909510
S11305508095709561957F4F8F4F9F4F9923A9F098
S1130560F92F96E9BB279395F69587957795679527
S1130570B795F111F8CFFAF4BB0F11F460FF1BC06B
S11305806F5F7F4F8F4F9F4F16C0882311F096E9FE
S113059011C0772321F09EE8872F762F05C06623AC
S11305A071F096E8862F70E060E02AF09A95660F65
S11305B0771F881FDAF7880F9695879597F908951E
S11305C097F99F6780E870E060E008959FEF80EC02
S11305D0089500240A9416161706180609060895A5
S11305E000240A9412161306140605060895092E0B
S11305F00394000C11F4882352F0BB0F40F4BF2B7A
S113060011F460FF04C06F5F7F4F8F4F9F4F0895B9
S113061057FD9058440F551F59F05F3F71F04795AF
S1130620880F97FB991F61F09F3F79F08795089594
S1130630121613061406551FF2CF4695F1DF08C0B3
S1130640161617061806991FF1CF869571056105D0
S113065008940895E894BB2766277727CB0197F978
S11306600895FA01EE0FFF1F309621053105A1F11F
S11306706115710561F48038BFE39B0749F1689403
S11306809038810561F08038BFEF9B0741F09923D2
S11306904AF5FF3FE1053105210519F1E894089475
S11306A0E795D901AA2329F4AB2FBE2FF85FD0F325
S11306B010C0FF5F70F4A695E0F7F73950F019F019
S11306C0FF3A38F49F779F930DD00F9007FC905812
S11306D0089546F00C94E60260E070E080E89FE341
S11306E008954FE79F775F934F933F932F930E9413
S11306F02C042F913F914F915F910E94A8040C9478
S1130700890329F416F00C94E0020C942A030C9447
S1130710E6020E941003A8F39638A0F707F80F9298
S1130720E8942BE33AEA48EB5FE70E94BE040F9299
S11307300F920F924DB75EB70F920E947404E4E5D6
S1130740F0E00E94BB034F915F91EF91FF91E5951B
S1130750EE1FFF1F49F0FE57E0684427EE0F441FC9
S1130760FA95E1F74195550B0E94EE030F9007FEB1
S11307700C94E2030895DF93CF931F930F93FF929A
S1130780EF92DF927B018C01689406C0DA2EEF01B0
S11307900E94BB04FE01E894A591259135914591F1
S11307A05591A6F3EF010E94AD01FE019701A80146
S11307B0DA9469F7DF90EF90FF900F911F91CF913A
S11307C0DF9108959B01AC0160E070E080E89FE355
S11307D00C9402020C94E0020C9415050E94100380
S11307E0D8F39923C9F3940F511DA3F391505040AA
S11307F094F059F0882332F0660F771F881F9150C8
S11308005040C1F79E3F51052CF7880F911D9695D6
S1130810879597F908955F3FACF0983E9CF0BB270D
S1130820869577956795B79508F4B1609395C1F768
S1130830BB0F58F711F460FFE8CF6F5F7F4F8F4F06
S11308409F4FE3CF0C942B0316F00C9415050C94D6
S1130850E60268940C94E0020E941003A8F3992322
S1130860C1F3AEF3DF93CF931F930F93FF92C92F7E
S1130870DD2788232AF02197660F771F881FDAF770
S113088020E030E040E85FEB9FE3883920F0803ED1
S113089038F021968F770E949601ECE7F0E004C0CF
S11308A00E949601E9EAF0E00E94BB038B01BE01BD
S11308B0EC01FB2E6F5771097595771F880B990B07
S11308C00E94A50228E132E741E35FE30E94BB04F2
S11308D0AF2D9801AE01FF900F911F91CF91DF9141
S11308E00E94AD010C94F702FA01DC01AA0FBB1FB0
S11308F09B01AC01BF5728F42227332744275078A3
S113090020C0B75190F4AB2F002446953795279516
S1130910011CA395D2F3002071F0220F331F441F52
S1130920B395DAF30ED00C94950161307105A0E80B
S11309308A07B94630F49B01AC01662777278827DC
S11309409078309621F02083318342835383089535
S11309500E94BB040C94F7020E94E90238F00E9442
S1130960F00220F0952311F00C94E0020C94E602BE
S113097011240C942B030E94080370F3959FC1F378
S1130980950F50E0551F629FF001729FBB27F00D39
S1130990B11D639FAA27F00DB11DAA1F649F66278E
S11309A0B00DA11D661F829F2227B00DA11D621FDD
S11309B0739FB00DA11D621F839FA00D611D221F97
S11309C0749F3327A00D611D231F849F600D211D7B
S11309D0822F762F6A2F11249F5750409AF0F1F0FE
S11309E088234AF0EE0FFF1FBB1F661F771F881F67
S11309F091505040A9F79E3F510580F00C94E002BD
S1130A000C942B035F3FE4F3983ED4F386957795DB
S1130A106795B795F795E7959F5FC1F7FE2B880F0C
S1130A20911D9695879597F908959F3F31F09150C0
S1130A3020F4879577956795B795880F911D9695BE
S10D0A40879597F90895F894FFCF05
S9030000FC
