S00D00004D43555F322E73726563A1
S11300000C946B000C947D000C947D000C947D008A
S11300100C947D000C947D000C947D000C947D0068
S11300200C947D000C947D000C947D000C947D0058
S11300300C947D000C947D000C947D000C947D0048
S11300400C947D000C947D000C947D000C947D0038
S11300500C947D0007634236B79BD8A71A396856BB
S113006018AEBAAB558C1D3CB7CC5763BD6DEDFDD6
S1130070753EF6177231BF000000803F0800000093
S1130080BE922449123EABAAAA2ABECDCCCC4C3E89
S113009000000080BEABAAAAAA3E00000000BF0078
S11300A00000803F0000000000084178D3BB438774
S11300B0D1133D190E3CC3BD4282AD2B3E68EC8288
S11300C076BED98FE1A93E4C80EFFFBE01C4FF7F0D
S11300D03F000000000011241FBECFE5D8E0DEBFC2
S11300E0CDBF20E0A0E6B0E001C01D92A136B2076A
S11300F0E1F70E947F000C94F4040C9400008FEF4D
S113010087BB81E00E94B0000E94E400811110C00E
S113011061E080E10E94F800853051F441E061E043
S113012080E690E00E941D018C3011F40E94600171
S11301308091600088BB0E94E400811110C060E0DF
S113014080E10E94F800833051F440E060E080E6F2
S113015090E00E941D01883011F40E946001FFCFDD
S113016011B8803141F0803451F0843071F481B1A0
S1130170816081B90AC081B1826081B906C081B150
S1130180816081B981B1826081B961B1637070E0CD
S113019080E090E00E9476029B01AC0160E070E098
S11301A080E890E40E9402039B01AC010E94670175
S11301B09B01AC0160E070E080E89FE40E94D30101
S11301C00E94450260B9089586B7806886BF86B7E5
S11301D0806286BF86B7846086BF06B607FEFDCF01
S11301E081B1887F883011F081E0089580E008951E
S11301F0611102C083B904C0613011F48F5F83B907
S113020086B7806886BF86B7846086BF06B607FE59
S1130210FDCF81B1887F883141F0803241F0803454
S113022041F0883441F486E0089583E0089584E041
S1130230089585E0089587E00895611114C0FC01D4
S1130240808183B986B7806886BF86B7846086BF9D
S113025006B607FEFDCF81B1887F883249F180332D
S113026049F589E00895613011F541110AC026B7B6
S1130270206826BF26B7246026BF26B7206426BF81
S113028008C0413031F426B7206826BF26B7246061
S113029026BF06B607FEFDCF23B1FC01208381B142
S11302A0887F803549F0883549F48CE008950895B5
S11302B088E008958AE008958BE008958DE008951C
S11302C084E986BF06B604FCFDCF08955058BB27C9
S11302D0AA270E947E010C94C8020E94BA0238F038
S11302E00E94C10220F039F49F3F19F426F40C94C3
S11302F0B7020EF4E095E7FB0C94B102E92F0E94DB
S1130300D90258F3BA17620773078407950720F0D8
S113031079F4A6F50C94FB020EF4E0950B2EBA2F9B
S1130320A02D0B01B90190010C01CA01A0011124F7
S1130330FF27591B99F0593F50F4503E68F11A16A3
S1130340F040A22F232F342F4427585FF3CF469534
S113035037952795A795F0405395C9F77EF41F1656
S1130360BA0B620B730B840BBAF09150A1F0FF0F20
S1130370BB1F661F771F881FC2F70EC0BA0F621F0C
S1130380731F841F48F4879577956795B795F795FC
S11303909E3F08F0B0CF9395880F08F09927EE0F91
S11303A09795879508950E94E7010C94C8020E94CE
S11303B0C10258F00E94BA0240F029F45F3F29F0CC
S11303C00C94B10251110C94FC020C94B7020E94DB
S11303D0D90268F39923B1F3552391F3951B550B77
S11303E0BB27AA2762177307840738F09F5F5F4F04
S11303F0220F331F441FAA1FA9F335D00E2E3AF043
S1130400E0E832D091505040E695001CCAF72BD05A
S1130410FE2F29D0660F771F881FBB1F26173707AB
S11304204807AB07B0E809F0BB0B802DBF01FF27DD
S113043093585F4F3AF09E3F510578F00C94B10207
S11304400C94FC025F3FE4F3983ED4F386957795D1
S11304506795B795F7959F5FC9F7880F911D969596
S1130460879597F90895E1E0660F771F881FBB1FF2
S1130470621773078407BA0720F0621B730B840B9F
S1130480BA0BEE1F88F7E09508950E94E10288F008
S11304909F5798F0B92F9927B751B0F0E1F0660F44
S11304A0771F881F991F1AF0BA95C9F714C0B13085
S11304B091F00E94FB02B1E008950C94FB02672FB7
S11304C0782F8827B85F39F0B93FCCF386957795B4
S11304D06795B395D9F73EF490958095709561959D
S11304E07F4F8F4F9F4F0895E89409C097FB3EF4C8
S11304F090958095709561957F4F8F4F9F4F99236D
S1130500A9F0F92F96E9BB279395F69587957795EA
S11305106795B795F111F8CFFAF4BB0F11F460FFAA
S11305201BC06F5F7F4F8F4F9F4F16C0882311F002
S113053096E911C0772321F09EE8872F762F05C016
S1130540662371F096E8862F70E060E02AF09A95B1
S1130550660F771F881FDAF7880F9695879597F9A6
S1130560089597F99F6780E870E060E008959FEF31
S113057080EC089500240A94161617061806090636
S1130580089500240A941216130614060506089505
S1130590092E0394000C11F4882352F0BB0F40F48D
S11305A0BF2B11F460FF04C06F5F7F4F8F4F9F4FCD
S11305B0089557FD9058440F551F59F05F3F71F04F
S11305C04795880F97FB991F61F09F3F79F08795B6
S11305D00895121613061406551FF2CF4695F1DF3F
S11305E008C0161617061806991FF1CF86957105CF
S11305F0610508940895E894BB2766277727CB0103
S113060097F90895FA01EE0FFF1F30962105310581
S1130610A1F16115710561F48038BFE39B0749F1CD
S113062068949038810561F08038BFEF9B0741F0F2
S113063099234AF5FF3FE1053105210519F1E894B5
S11306400894E795D901AA2329F4AB2FBE2FF85FAC
S1130650D0F310C0FF5F70F4A695E0F7F73950F0BF
S113066019F0FF3A38F49F779F930DD00F9007FC51
S11306709058089546F00C94B70260E070E080E86A
S11306809FE308954FE79F775F934F933F932F9393
S11306900E94FD032F913F914F915F910E94790435
S11306A00C945A0329F416F00C94B1020C94FB0236
S11306B00C94B7020E94E102A8F39638A0F707F859
S11306C00F92E8942BE33AEA48EB5FE70E948F0429
S11306D00F920F920F924DB75EB70F920E9445048E
S11306E0E4E5F0E00E948C034F915F91EF91FF915C
S11306F0E595EE1FFF1F49F0FE57E0684427EE0F13
S1130700441FFA95E1F74195550B0E94BF030F90E2
S113071007FE0C94B3030895DF93CF931F930F93B5
S1130720FF92EF92DF927B018C01689406C0DA2E6F
S1130730EF010E948C04FE01E894A5912591359166
S113074045915591A6F3EF010E947E01FE019701A8
S1130750A801DA9469F7DF90EF90FF900F911F9151
S1130760CF91DF9108959B01AC0160E070E080E8D7
S11307709FE30C94D3010C94B1020C94E6040E9400
S1130780E102D8F39923C9F3940F511DA3F39150B7
S1130790504094F059F0882332F0660F771F881F79
S11307A091505040C1F79E3F51052CF7880F911D81
S11307B09695879597F908955F3FACF0983E9CF025
S11307C0BB27869577956795B79508F4B16093959F
S11307D0C1F7BB0F58F711F460FFE8CF6F5F7F4F8D
S11307E08F4F9F4FE3CF0C94FC0216F00C94E60459
S11307F00C94B70268940C94B1020E94E102A8F32D
S11308009923C1F3AEF3DF93CF931F930F93FF921A
S1130810C92FDD2788232AF02197660F771F881FA9
S1130820DAF720E030E040E85FEB9FE3883920F01E
S1130830803E38F021968F770E946701ECE7F0E064
S113084004C00E946701E9EAF0E00E948C038B0176
S1130850BE01EC01FB2E6F5771097595771F880B4C
S1130860990B0E94760228E132E741E35FE30E949C
S11308708C04AF2D9801AE01FF900F911F91CF9181
S1130880DF910E947E010C94C802FA01DC01AA0FD8
S1130890BB1F9B01AC01BF5728F4222733274427F1
S11308A0507820C0B75190F4AB2F0024469537956B
S11308B02795011CA395D2F3002071F0220F331F5A
S11308C0441FB395DAF30ED00C94660161307105C0
S11308D0A0E88A07B94630F49B01AC016627772764
S11308E088279078309621F0208331834283538384
S11308F008950E948C040C94C8020E94BA0238F035
S11309000E94C10220F0952311F00C94B1020C94C2
S1130910B70211240C94FC020E94D90270F3959F33
S1130920C1F3950F50E0551F629FF001729FBB27E2
S1130930F00DB11D639FAA27F00DB11DAA1F649F7E
S11309406627B00DA11D661F829F2227B00DA11D31
S1130950621F739FB00DA11D621F839FA00D611DB7
S1130960221F749F3327A00D611D231F849F600DD8
S1130970211D822F762F6A2F11249F5750409AF001
S1130980F1F088234AF0EE0FFF1FBB1F661F771F8D
S1130990881F91505040A9F79E3F510580F00C9458
S11309A0B1020C94FC025F3FE4F3983ED4F38695C5
S11309B077956795B795F795E7959F5FC1F7FE2BF8
S11309C0880F911D9695879597F908959F3F31F06B
S11309D0915020F4879577956795B795880F911D69
S10F09E09695879597F90895F894FFCF39
S9030000FC
