S00D00004D43555F322E73726563A1
S11300000C942A000C943C000C943C000C943C008E
S11300100C943C000C943C000C943C000C943C006C
S11300200C943C000C943C000C943C000C943C005C
S11300300C943C000C943C000C943C000C943C004C
S11300400C943C000C943C000C943C000C943C003C
S11300500C943C0011241FBECFE5D8E0DEBFCDBF19
S113006020E0A0E6B0E001C01D92A236B207E1F79D
S11300700E943E000C946B010C94000041E060E08F
S113008081E40E945B000E944E010E946201809103
S1130090600090916100009731F440E060E081E4F9
S11300A00E94D300F2CF019781F741E060E081E440
S11300B00E94D300EACF823429F118F4813439F054
S11300C008958334D1F1843409F452C00895413041
S11300D059F42AB381E090E002C0880F991F6A9511
S11300E0E2F7822B8ABB089541115CC02AB381E0F8
S11300F090E002C0880F991F6A95E2F780958223E9
S11301008ABB0895413059F427B381E090E002C0DE
S1130110880F991F6A95E2F7822B87BB08954111D6
S113012041C027B381E090E002C0880F991F6A950F
S1130130E2F78095822387BB0895413059F424B3B4
S113014081E090E002C0880F991F6A95E2F7822B44
S113015084BB0895411126C024B381E090E002C01D
S1130160880F991F6A95E2F78095822384BB0895CE
S1130170413059F421B381E090E002C0880F991F07
S11301806A95E2F7822B81BB089541110BC021B31C
S113019081E090E002C0880F991F6A95E2F780958C
S11301A0822381BB0895823429F118F4813439F013
S11301B008958334D1F1843409F452C00895413050
S11301C059F42BB381E090E002C0880F991F6A951F
S11301D0E2F7822B8BBB089541115CC02BB381E005
S11301E090E002C0880F991F6A95E2F780958223F8
S11301F08BBB0895413059F428B381E090E002C0EC
S1130200880F991F6A95E2F7822B88BB08954111E4
S113021041C028B381E090E002C0880F991F6A951D
S1130220E2F78095822388BB0895413059F425B3C1
S113023081E090E002C0880F991F6A95E2F7822B53
S113024085BB0895411126C025B381E090E002C02A
S1130250880F991F6A95E2F78095822385BB0895DC
S1130260413059F422B381E090E002C0880F991F15
S11302706A95E2F7822B82BB089541110BC022B329
S113028081E090E002C0880F991F6A95E2F780959B
S1130290822382BB089590BD89B9089583E390E0D9
S11302A00E944B018AB188608AB98AB180618AB997
S11302B080B5806880BD80B5826080BD80B5846073
S11302C080BD08955F9BFECF8CB190E09093610058
S10D02D0809360000895F894FFCFB6
S9030000FC
