:100000000C946B000C9488000C9488000C9488006D
:100010000C9488000C9488000C9488000C94880040
:100020000C9488000C9488000C9488000C94880030
:100030000C9488000C9488000C9488000C94880020
:100040000C9488000C9488000C9488000C94880010
:100050000C94880007634236B79BD8A71A396856B4
:1000600018AEBAAB558C1D3CB7CC5763BD6DEDFDDA
:10007000753EF6177231BF000000803F0800000097
:10008000BE922449123EABAAAA2ABECDCCCC4C3E8D
:1000900000000080BEABAAAAAA3E00000000BF007C
:1000A0000000803F0000000000084178D3BB438778
:1000B000D1133D190E3CC3BD4282AD2B3E68EC828C
:1000C00076BED98FE1A93E4C80EFFFBE01C4FF7F11
:1000D0003F000000000011241FBECFE5D8E0DEBFC6
:1000E000CDBF10E0A0E6B0E0E2EEF9E002C005907E
:1000F0000D92A237B107D9F720E0A2E7B0E001C026
:100100001D92A337B207E1F70E94C5000C94EF04DB
:100110000C9400000E9401010895CF93DF93EC013D
:1001200086EA0E94210180E00E94380188E00E9456
:1001300038010E945B0187EA0E9421018881998130
:100140000E944E010E945B01DF91CF9108950F93B1
:100150001F93CF938C0186EA0E94210180E00E94C8
:10016000380188E00E943801C0E003C00E944301CA
:10017000CF5FF801EC0FF11D80818111F7CF0E9454
:100180005B01CF911F910F910895CF93DF93CDB76E
:10019000DEB760970FB6F894DEBF0FBECDBF88E024
:1001A000E2E6F0E0DE01119601900D928A95E1F70A
:1001B000FE01399688E0DF011D928A95E9F78FEFFD
:1001C00087BB0E948A00CE0101960E94A700BFE96A
:1001D00026E881E0B15020408040E1F700C00000F7
:1001E00080E690E00E948D009FE9A6E8B1E0915082
:1001F000A040B040E1F700C000008091720088BBD1
:10020000FFCF11B861B1637070E080E090E00E94B0
:1002100071029B01AC0160E070E080E890E40E9414
:10022000FD029B01AC010E9462019B01AC0160E0F8
:1002300070E080E89FE40E94CE010E94400260B915
:10024000089596B7906896BF96B7906296BF96B796
:10025000946096BF06B607FEFDCF83B986B7806867
:1002600086BF86B7846086BF06B607FEFDCF0895B9
:1002700083B986B7806886BF86B7846086BF06B6B6
:1002800007FEFDCF089583B986B7806886BF86B71D
:10029000846086BF06B607FEFDCF0895FC0196B7C1
:1002A000906896BF96B7946096BF06B607FEFDCFDE
:1002B00083B18083089584E986BF06B604FCFDCF30
:1002C00008955058BB27AA270E9479010C94C302B5
:1002D0000E94B50238F00E94BC0220F039F49F3F22
:1002E00019F426F40C94B2020EF4E095E7FB0C949A
:1002F000AC02E92F0E94D40258F3BA1762077307C1
:100300008407950720F079F4A6F50C94F6020EF414
:10031000E0950B2EBA2FA02D0B01B90190010C0115
:10032000CA01A0011124FF27591B99F0593F50F42D
:10033000503E68F11A16F040A22F232F342F442785
:10034000585FF3CF469537952795A795F04053957D
:10035000C9F77EF41F16BA0B620B730B840BBAF04D
:100360009150A1F0FF0FBB1F661F771F881FC2F7B8
:100370000EC0BA0F621F731F841F48F487957795CC
:100380006795B795F7959E3F08F0B0CF9395880F86
:1003900008F09927EE0F9795879508950E94E2013E
:1003A0000C94C3020E94BC0258F00E94B50240F0B7
:1003B00029F45F3F29F00C94AC0251110C94F70220
:1003C0000C94B2020E94D40268F39923B1F355232E
:1003D00091F3951B550BBB27AA2762177307840758
:1003E00038F09F5F5F4F220F331F441FAA1FA9F3EE
:1003F00035D00E2E3AF0E0E832D091505040E695DC
:10040000001CCAF72BD0FE2F29D0660F771F881F3C
:10041000BB1F261737074807AB07B0E809F0BB0B2F
:10042000802DBF01FF2793585F4F3AF09E3F510543
:1004300078F00C94AC020C94F7025F3FE4F3983E22
:10044000D4F3869577956795B795F7959F5FC9F72C
:10045000880F911D9695879597F90895E1E0660FAD
:10046000771F881FBB1F621773078407BA0720F026
:10047000621B730B840BBA0BEE1F88F7E09508958F
:100480000E94DC0288F09F5798F0B92F9927B75146
:10049000B0F0E1F0660F771F881F991F1AF0BA9528
:1004A000C9F714C0B13091F00E94F602B1E008958E
:1004B0000C94F602672F782F8827B85F39F0B93F80
:1004C000CCF3869577956795B395D9F73EF49095DB
:1004D0008095709561957F4F8F4F9F4F0895E89459
:1004E00009C097FB3EF490958095709561957F4F7C
:1004F0008F4F9F4F9923A9F0F92F96E9BB2793952A
:10050000F695879577956795B795F111F8CFFAF439
:10051000BB0F11F460FF1BC06F5F7F4F8F4F9F4F6A
:1005200016C0882311F096E911C0772321F09EE8C8
:10053000872F762F05C0662371F096E8862F70E02E
:1005400060E02AF09A95660F771F881FDAF7880F08
:100550009695879597F9089597F99F6780E870E0D9
:1005600060E008959FEF80EC089500240A94161629
:10057000170618060906089500240A941216130691
:10058000140605060895092E0394000C11F488231F
:1005900052F0BB0F40F4BF2B11F460FF04C06F5F3B
:1005A0007F4F8F4F9F4F089557FD9058440F551F11
:1005B00059F05F3F71F04795880F97FB991F61F0E5
:1005C0009F3F79F087950895121613061406551F5C
:1005D000F2CF4695F1DF08C0161617061806991FC8
:1005E000F1CF86957105610508940895E894BB27BD
:1005F00066277727CB0197F90895FA01EE0FFF1FC1
:10060000309621053105A1F16115710561F480383D
:10061000BFE39B0749F168949038810561F0803809
:10062000BFEF9B0741F099234AF5FF3FE1053105F4
:10063000210519F1E8940894E795D901AA2329F432
:10064000AB2FBE2FF85FD0F310C0FF5F70F4A695FC
:10065000E0F7F73950F019F0FF3A38F49F779F939D
:100660000DD00F9007FC9058089546F00C94B202FC
:1006700060E070E080E89FE308954FE79F775F9325
:100680004F933F932F930E94F8032F913F914F91E7
:100690005F910E9474040C94550329F416F00C9495
:1006A000AC020C94F6020C94B2020E94DC02A8F395
:1006B0009638A0F707F80F92E8942BE33AEA48EB54
:1006C0005FE70E948A040F920F920F924DB75EB7B8
:1006D0000F920E944004E4E5F0E00E9487034F91EE
:1006E0005F91EF91FF91E595EE1FFF1F49F0FE57D7
:1006F000E0684427EE0F441FFA95E1F74195550B4A
:100700000E94BA030F9007FE0C94AE030895DF9386
:10071000CF931F930F93FF92EF92DF927B018C0197
:10072000689406C0DA2EEF010E948704FE01E89467
:10073000A5912591359145915591A6F3EF010E9420
:100740007901FE019701A801DA9469F7DF90EF9033
:10075000FF900F911F91CF91DF9108959B01AC0104
:1007600060E070E080E89FE30C94CE010C94AC0252
:100770000C94E1040E94DC02D8F39923C9F3940F8E
:10078000511DA3F39150504094F059F0882332F05A
:10079000660F771F881F91505040C1F79E3F51054B
:1007A0002CF7880F911D9695879597F908955F3FCF
:1007B000ACF0983E9CF0BB27869577956795B795EA
:1007C00008F4B1609395C1F7BB0F58F711F460FFBF
:1007D000E8CF6F5F7F4F8F4F9F4FE3CF0C94F702AF
:1007E00016F00C94E1040C94B20268940C94AC02E0
:1007F0000E94DC02A8F39923C1F3AEF3DF93CF93F9
:100800001F930F93FF92C92FDD2788232AF021978A
:10081000660F771F881FDAF720E030E040E85FEBD3
:100820009FE3883920F0803E38F021968F770E9430
:100830006201ECE7F0E004C00E946201E9EAF0E046
:100840000E9487038B01BE01EC01FB2E6F577109DB
:100850007595771F880B990B0E94710228E132E78A
:1008600041E35FE30E948704AF2D9801AE01FF9042
:100870000F911F91CF91DF910E9479010C94C302D7
:10088000FA01DC01AA0FBB1F9B01AC01BF5728F482
:10089000222733274427507820C0B75190F4AB2F3C
:1008A0000024469537952795011CA395D2F3002087
:1008B00071F0220F331F441FB395DAF30ED00C945E
:1008C000610161307105A0E88A07B94630F49B01E7
:1008D000AC016627772788279078309621F020830F
:1008E00031834283538308950E9487040C94C3028A
:1008F0000E94B50238F00E94BC0220F0952311F04E
:100900000C94AC020C94B20211240C94F7020E94D5
:10091000D40270F3959FC1F3950F50E0551F629F6D
:10092000F001729FBB27F00DB11D639FAA27F00D48
:10093000B11DAA1F649F6627B00DA11D661F829F6F
:100940002227B00DA11D621F739FB00DA11D621F54
:10095000839FA00D611D221F749F3327A00D611D71
:10096000231F849F600D211D822F762F6A2F112453
:100970009F5750409AF0F1F088234AF0EE0FFF1F86
:10098000BB1F661F771F881F91505040A9F79E3FDD
:10099000510580F00C94AC020C94F7025F3FE4F335
:1009A000983ED4F3869577956795B795F795E79533
:1009B0009F5FC1F7FE2B880F911D9695879597F93C
:1009C00008959F3F31F0915020F487957795679572
:1009D000B795880F911D9695879597F90895F89486
:0209E000FFCF47
:1009E20072006D6F737461666100000000000000A8
:0209F200000003
:00000001FF
