:100000000C942A000C9447000C9447000C94470071
:100010000C9447000C9447000C9447000C94470044
:100020000C9447000C9447000C9447000C94470034
:100030000C9447000C9447000C9447000C94470024
:100040000C9447000C9447000C9447000C94470014
:100050000C94470011241FBECFE5D8E0DEBFCDBF12
:1000600010E0A0E6B0E0E8ECF5E002C005900D92EB
:10007000A238B107D9F720E0A2E8B0E001C01D9294
:10008000A338B207E1F70E9455010C94E2020C94E8
:10009000000041E064E081E40E948A0141E065E003
:1000A00081E40E948A0141E066E081E40E948A01C5
:1000B00041E067E081E40E948A0140E060E081E481
:1000C0000E948A0140E061E081E40E948A0140E0F0
:1000D00062E081E40E948A0140E063E081E40E94E2
:1000E0008A018FEF8BBB0895CF92DF92EF92FF9240
:1000F0000F931F93CF93DF931F92CDB7DEB7E12C01
:10010000F12CD12CC12C4CC040E0F701EC58FF4F32
:10011000608181E40E94040200E010E031C0AE0181
:100120004F5F5F4FF801E059FF4F608181E40E940B
:100130007E028981811122C087E893E10197F1F75E
:1001400000C000000AC0AE014F5F5F4FF801E059E8
:10015000FF4F608181E40E947E028981882399F3A8
:10016000C701880F991F880F991F805A9F4FFC0164
:10017000E00FF11FC080DD24D39405C00F5F1F4F37
:100180000430110564F241E0F701EC58FF4F608143
:1001900081E40E940402D11008C09FEFE91AF90A15
:1001A00084E0E816F1040CF4AFCF8C2D0F90DF91B2
:1001B000CF911F910F91FF90EF90DF90CF90089516
:1001C00085BB82B38F7D82BB82B38F7B82BB82B3C0
:1001D000806882BB89EF90E00197F1F700C00000D2
:1001E00082B38F7782BB8DEE92E00197F1F700C06A
:1001F0000000089585BB82B3806282BB82B38F7B8F
:1002000082BB82B3806882BB89EF90E00197F1F7EF
:1002100000C0000082B38F7782BB8DEE92E0019721
:10022000F1F700C0000008950F931F93CF938C0146
:10023000C0E003C00E94FA00CF5FF801EC0FF11D8F
:1002400080818111F7CFCF911F910F9108958FEF8A
:1002500084BB41E065E084E40E948A0141E066E0FD
:1002600084E40E948A0141E067E084E40E948A01FC
:1002700087E893E10197F1F700C0000088E30E944E
:10028000E0008EE00E94E00086E00E94E00081E055
:100290000E94E00080E80E94E00088E790E00E9471
:1002A000140180EC0E94E00008950E9449000E9421
:1002B000270141E060E082E40E948A0141E061E0C0
:1002C00082E40E948A0141E062E082E40E948A01A5
:1002D0000E94740080938200803331F441E060E03A
:1002E00082E40E9404020FC0813331F441E061E0F6
:1002F00082E40E94040207C0823329F441E062E0F4
:1003000082E40E94040280918200882309F30E9403
:10031000FA00DECF823431F118F4813439F00895D7
:100320008334E1F1843409F454C0089541110CC0C0
:100330002AB381E090E002C0880F991F6A95E2F726
:10034000809582238ABB0895413009F05CC02AB3AE
:1003500081E090E002C0880F991F6A95E2F7822B36
:100360008ABB089541110CC027B381E090E002C020
:10037000880F991F6A95E2F78095822387BB0895BD
:10038000413009F040C027B381E090E002C0880FFF
:10039000991F6A95E2F7822B87BB089541110CC023
:1003A00024B381E090E002C0880F991F6A95E2F7BC
:1003B0008095822384BB0895413029F524B381E0E0
:1003C00090E002C0880F991F6A95E2F7822B84BBE8
:1003D000089541110CC021B381E090E002C0880F64
:1003E000991F6A95E2F78095822381BB0895413079
:1003F00051F421B381E090E002C0880F991F6A9503
:10040000E2F7822B81BB0895823431F118F48134F4
:1004100039F008958334E1F1843409F454C0089527
:1004200041110CC02BB381E090E002C0880F991FEE
:100430006A95E2F7809582238BBB0895413009F0DD
:100440005CC02BB381E090E002C0880F991F6A95D1
:10045000E2F7822B8BBB089541110CC028B381E0D9
:1004600090E002C0880F991F6A95E2F78095822379
:1004700088BB0895413009F040C028B381E090E086
:1004800002C0880F991F6A95E2F7822B88BB0895F6
:1004900041110CC025B381E090E002C0880F991F84
:1004A0006A95E2F78095822385BB0895413029F54E
:1004B00025B381E090E002C0880F991F6A95E2F7AA
:1004C000822B85BB089541110CC022B381E090E0DE
:1004D00002C0880F991F6A95E2F78095822382BB3C
:1004E0000895413051F422B381E090E002C0880FBA
:1004F000991F6A95E2F7822B82BB0895823401F13D
:1005000018F4813439F00895833481F1843409F486
:1005100043C0089579B381E090E09C01062E02C0AB
:10052000220F331F0A94E2F7872F90E08223932350
:1005300002C0959587956A95E2F7FA018083089540
:1005400076B381E090E09C01062E02C0220F331F9B
:100550000A94E2F7872F90E08223932302C09595B7
:1005600087956A95E2F7FA018083089573B381E075
:1005700090E09C01062E02C0220F331F0A94E2F77E
:10058000872F90E08223932302C0959587956A95E3
:10059000E2F7FA018083089570B381E090E09C0156
:1005A000062E02C0220F331F0A94E2F7872F90E035
:1005B0008223932302C0959587956A95E2F7FA0105
:0805C00080830895F894FFCF39
:1005C8003738392F343536783132332D63303D2B77
:1005D800030201000706050457656C636F6D652EFD
:0205E8002E2EB5
:00000001FF
