S00D00004D43555F312E73726563A2
S11300000C942A000C9447000C9447000C9447006D
S11300100C9447000C9447000C9447000C94470040
S11300200C9447000C9447000C9447000C94470030
S11300300C9447000C9447000C9447000C94470020
S11300400C9447000C9447000C9447000C94470010
S11300500C94470011241FBECFE5D8E0DEBFCDBF0E
S113006010E0A0E6B0E0EAE9F6E002C005900D92E7
S1130070A239B107D9F720E0A2E9B0E001C01D928E
S1130080A43AB207E1F70E9455010C944B030C9477
S1130090000041E064E081E40E947D0141E065E00C
S11300A081E40E947D0141E066E081E40E947D01DB
S11300B041E067E081E40E947D0140E060E081E48A
S11300C00E947D0140E061E081E40E947D0140E006
S11300D062E081E40E947D0140E063E081E40E94EB
S11300E07D018FEF8BBB0895CF92DF92EF92FF9249
S11300F00F931F93CF93DF931F92CDB7DEB7E12CFD
S1130100F12CD12CC12C4CC040E0F701EC58FF4F2E
S1130110608181E40E94F70100E010E031C0AE018B
S11301204F5F5F4FF801E059FF4F608181E40E9407
S113013071028981811122C087E893E10197F1F767
S113014000C000000AC0AE014F5F5F4FF801E059E4
S1130150FF4F608181E40E9471028981882399F3B1
S1130160C701880F991F880F991F805A9F4FFC0160
S1130170E00FF11FC080DD24D39405C00F5F1F4F33
S11301800430110564F241E0F701EC58FF4F60813F
S113019081E40E94F701D11008C09FEFE91AF90A1F
S11301A084E0E816F1040CF4AFCF8C2D0F90DF91AE
S11301B0CF911F910F91FF90EF90DF90CF90089512
S11301C085BB82B38F7D82BB82B38F7B82BB82B3BC
S11301D0806882BB89EF90E00197F1F700C00000CE
S11301E082B38F7782BB8DEE92E00197F1F700C066
S11301F00000089585BB82B3806282BB82B38F7B8B
S113020082BB82B3806882BB89EF90E00197F1F7EB
S113021000C0000082B38F7782BB8DEE92E001971D
S1130220F1F700C0000008950F931F93CF938C0142
S1130230C0E003C00E94FA00CF5FF801EC0FF11D8B
S113024080818111F7CFCF911F910F9108958FEF86
S113025084BB41E065E084E40E947D0141E066E006
S113026084E40E947D0141E067E084E40E947D0112
S113027087E893E10197F1F700C0000088E30E944A
S1130280E0008EE00E94E00086E00E94E00081E051
S11302900E94E00080E80E94E00088E790E00E946D
S11302A0140180EC0E94E00008950E9449000E941D
S11302B027010E9423030E947400809392008D33CF
S11302C029F484E990E00E943603F5CF833681F067
S11302D0E0919300F0E0EC56FF4F8083882359F3BC
S11302E00E94FA00809193008F5F80939300E3CF84
S11302F082E890E00E943603DECF823431F118F4B4
S1130300813439F008958334E1F1843409F454C01C
S1130310089541110CC02AB381E090E002C0880F17
S1130320991F6A95E2F7809582238ABB089541302C
S113033009F05CC02AB381E090E002C0880F991FE5
S11303406A95E2F7822B8ABB089541110CC027B34A
S113035081E090E002C0880F991F6A95E2F78095CA
S1130360822387BB0895413009F040C027B381E060
S113037090E002C0880F991F6A95E2F7822B87BB31
S1130380089541110CC024B381E090E002C0880FAD
S1130390991F6A95E2F78095822384BB08954130C2
S11303A029F524B381E090E002C0880F991F6A9573
S11303B0E2F7822B84BB089541110CC021B381E084
S11303C090E002C0880F991F6A95E2F78095822316
S11303D081BB0895413051F421B381E090E002C023
S11303E0880F991F6A95E2F7822B81BB08958234A6
S11303F031F118F4813439F008958334E1F184340F
S113040009F454C0089541110CC02BB381E090E06D
S113041002C0880F991F6A95E2F7809582238BBBEF
S11304200895413009F05CC02BB381E090E002C034
S1130430880F991F6A95E2F7822B8BBB08954111AF
S11304400CC028B381E090E002C0880F991F6A9520
S1130450E2F78095822388BB0895413009F040C0BB
S113046028B381E090E002C0880F991F6A95E2F7F3
S1130470822B88BB089541110CC025B381E090E024
S113048002C0880F991F6A95E2F78095822385BB85
S11304900895413029F525B381E090E002C0880F2A
S11304A0991F6A95E2F7822B85BB089541110CC010
S11304B022B381E090E002C0880F991F6A95E2F7A9
S11304C08095822382BB0895413051F422B381E0A8
S11304D090E002C0880F991F6A95E2F7822B82BBD5
S11304E00895823401F118F4813439F00895833485
S11304F081F1843409F443C0089579B381E090E034
S11305009C01062E02C0220F331F0A94E2F7872FA4
S113051090E08223932302C0959587956A95E2F72C
S1130520FA018083089576B381E090E09C01062E61
S113053002C0220F331F0A94E2F7872F90E0822330
S1130540932302C0959587956A95E2F7FA01808313
S1130550089573B381E090E09C01062E02C0220F3F
S1130560331F0A94E2F7872F90E08223932302C07B
S1130570959587956A95E2F7FA018083089570B39B
S113058081E090E09C01062E02C0220F331F0A94E2
S1130590E2F7872F90E08223932302C095958795F5
S11305A06A95E2F7FA018083089590BD89B90895A8
S11305B08730F9F028F4853041F0863081F036C078
S11305C0883009F1893049F131C080B58D7F80BD13
S11305D080B58B7F80BD8AB18B7F8AB927C080B5F7
S11305E0826080BD80B58B7F80BD8AB18B7F8AB9E4
S11305F01DC080B58D7F80BD80B5846080BD8AB10B
S11306008B7F8AB913C080B5826080BD80B5846059
S113061080BD8AB18B7F8AB909C080B5826080BDF4
S113062080B5846080BD8AB184608AB9613019F074
S1130630623029F0089580B5877F80BD089580B524
S1130640886080BD089583E390E00E94D5028AB15A
S113065080618AB98AB188608AB962E088E00E94C0
S1130660D80208955D9BFECF8CB908950F931F9314
S1130670CF938C01C0E003C00E943203CF5FF80126
S1130680EC0FF11D80818111F7CF0E943203CF91CD
S10D06901F910F910895F894FFCF15
S113069A3738392F343536783132332D63303D2BA0
S11306AA030201000706050457656C636F6D652E26
S11306BA2E2EFFFFFFFFFFFFFFFF000000000000D8
S10506CA00002A
S9030000FC
