:100000000C942A000C9447000C9447000C94470071
:100010000C9447000C9447000C9447000C94470044
:100020000C9447000C9447000C9447000C94470034
:100030000C9447000C9447000C9447000C94470024
:100040000C9447000C9447000C9447000C94470014
:100050000C94470011241FBECFE5D8E0DEBFCDBF12
:1000600011E0A0E6B0E0E8E8F9E002C005900D92EA
:10007000AA32B107D9F721E0AAE2B1E001C01D928E
:10008000A134B207E1F70E94D2020C94C2040C948E
:1000900000000E9471010E9462020E94960408956D
:1000A0009C0190E005C0F901E90FF11D10829F5FEE
:1000B0009131C8F310922D0108950E949C01809304
:1000C0003F018D33A1F580912D018430D0F08EE277
:1000D00091E00E94A9040E943C020E94C3022FE307
:1000E0008DE093E0215080409040E1F700C0000097
:1000F0008EE291E00E945000809140018130F1F544
:1001000039C00E943C020E94B2022FE78AE196E0C9
:10011000215080409040E1F700C000008EE291E065
:100120000E9450000E943C020E94A202C6CF833669
:1001300049F40E943C020E94A2028EE291E00E94D9
:100140005000BBCF882309F4B8CF80912D018031B6
:1001500008F0B3CF8AE20E94220280912D01E82F9D
:10016000F0E0E25DFE4F90913F0190838F5F8093BE
:100170002D01A3CF0E94BE048093600008950E94C9
:100180005D0080916000813069F40E943C020E9411
:10019000AA020E945D0010922B0110922C01109275
:1001A0002A01089580912A018F5F80932A010E947D
:1001B000A5040E943C020E94BE022FE78AE196E05D
:1001C000215080409040E1F700C000000E943C02B6
:1001D0000E94A202089580E00E943E0480934001A4
:1001E0000E94A504809140018F3F49F40E94AA0219
:1001F0000E945D0061E080E00E943104ECCF81301C
:1002000051F780912B01811119C00E943C020E947C
:1002100096020E949C0180932C0104C00E949C01C4
:1002200080932C0180912C0181538230B8F70E9479
:100230003C020E94A20281E080932B0180912B015D
:100240000E94A50480912C01813309F042C00E94D4
:10025000A5040E945D0080916000813009F50E9434
:100260003C020E94C8022FEB87E299E021508040B7
:100270009040E1F700C000000E943C020E94CD02C5
:100280002FE78AE196E0215080409040E1F700C0DE
:10029000000010922B0110922C0110922A019BCF8A
:1002A00080912A018F5F80932A010E94A5040E94F9
:1002B0003C020E94BE022FE78AE196E02150804076
:1002C0009040E1F700C000000E943C020E94A202A0
:1002D00082CF823309F07FCF0E94A5040E94BF0025
:1002E0007ACF41E064E081E40E94D90241E065E018
:1002F00081E40E94D90241E066E081E40E94D902D3
:1003000041E067E081E40E94D90240E060E081E4DE
:100310000E94D90240E061E081E40E94D90240E0FD
:1003200062E081E40E94D90240E063E081E40E943F
:10033000D9028FEF8BBB0895CF92DF92EF92FF929D
:100340000F931F93CF93DF931F92CDB7DEB7E12CAE
:10035000F12CD12CC12C4CC040E0F701EB58FF4FE1
:10036000608181E40E94530300E010E031C0AE01DF
:100370004F5F5F4FF801EF58FF4F608181E40E94AB
:10038000CD038981811122C087E893E10197F1F7BC
:1003900000C000000AC0AE014F5F5F4FF801EF5888
:1003A000FF4F608181E40E94CD038981882399F306
:1003B000C701880F991F880F991F8F599F4FFC0104
:1003C000E00FF11FC080DD24D39405C00F5F1F4FE5
:1003D0000430110564F241E0F701EB58FF4F6081F2
:1003E00081E40E945303D11008C09FEFE91AF90A73
:1003F00084E0E816F1040CF4AFCF8C2D0F90DF9160
:10040000CF911F910F91FF90EF90DF90CF900895C3
:1004100085BB82B38F7D82BB82B38F7B82BB82B36D
:10042000806882BB89EF90E00197F1F700C000007F
:1004300082B38F7782BB8DEE92E00197F1F700C017
:100440000000089585BB82B3806282BB82B38F7B3C
:1004500082BB82B3806882BB89EF90E00197F1F79D
:1004600000C0000082B38F7782BB8DEE92E00197CF
:10047000F1F700C00000089581E00E94080280E8C2
:100480000E94080208950F931F93CF938C01C0E040
:1004900003C00E942202CF5FF801EC0FF11D8081A2
:1004A0008111F7CFCF911F910F9108958FE191E0C6
:1004B0000E94430280EC0E9408028EE091E00E94BC
:1004C000430208958FEF84BB41E065E084E40E941D
:1004D000D90241E066E084E40E94D90241E067E08D
:1004E00084E40E94D90287E893E10197F1F700C004
:1004F000000088E30E9408028EE00E94080286E065
:100500000E94080281E00E94080280E80E9408021E
:100510000E9456029FE32DE083E0915020408040EE
:10052000E1F700C000000E943C02089580EE90E0D8
:100530000E94430280EC0E9408028FEC90E00E942F
:10054000430208958FEF90E00E94430280EC0E94E6
:100550000802089580EF90E00E94430280EC0E9420
:100560000802089580EC90E00E94430280EC0E9413
:10057000080286EB90E00E944302089587EA90E02B
:100580000E94430208958BE990E00E94430208957F
:100590008AE890E00E944302089589E790E00E9473
:1005A000430208950E9449000E94EB0080E090E021
:1005B0000895823431F118F4813439F00895833488
:1005C000E1F1843409F454C0089541110CC02AB3F8
:1005D00081E090E002C0880F991F6A95E2F780954C
:1005E00082238ABB0895413009F05CC02AB381E0C0
:1005F00090E002C0880F991F6A95E2F7822B8ABBB0
:10060000089541110CC027B381E090E002C0880F2B
:10061000991F6A95E2F78095822387BB0895413040
:1006200009F040C027B381E090E002C0880F991F15
:100630006A95E2F7822B87BB089541110CC024B361
:1006400081E090E002C0880F991F6A95E2F78095DB
:10065000822384BB0895413029F524B381E090E0E2
:1006600002C0880F991F6A95E2F7822B84BB089518
:1006700041110CC021B381E090E002C0880F991FA6
:100680006A95E2F78095822381BB0895413051F449
:1006900021B381E090E002C0880F991F6A95E2F7CC
:1006A000822B81BB0895823431F118F4813439F002
:1006B00008958334E1F1843409F454C0089541115C
:1006C0000CC02BB381E090E002C0880F991F6A959F
:1006D000E2F7809582238BBB0895413009F05CC01E
:1006E0002BB381E090E002C0880F991F6A95E2F772
:1006F000822B8BBB089541110CC028B381E090E0A0
:1007000002C0880F991F6A95E2F78095822388BB03
:100710000895413009F040C028B381E090E002C064
:10072000880F991F6A95E2F7822B88BB08954111C3
:100730000CC025B381E090E002C0880F991F6A9534
:10074000E2F78095822385BB0895413029F525B3D2
:1007500081E090E002C0880F991F6A95E2F7822B32
:1007600085BB089541110CC022B381E090E002C026
:10077000880F991F6A95E2F78095822382BB0895BE
:10078000413051F422B381E090E002C0880F991FFC
:100790006A95E2F7822B82BB0895823401F118F446
:1007A000813439F00895833481F1843409F443C0ED
:1007B000089579B381E090E09C01062E02C0220FDB
:1007C000331F0A94E2F7872F90E08223932302C01D
:1007D000959587956A95E2F7FA018083089576B337
:1007E00081E090E09C01062E02C0220F331F0A9484
:1007F000E2F7872F90E08223932302C09595879597
:100800006A95E2F7FA018083089573B381E090E07E
:100810009C01062E02C0220F331F0A94E2F7872F95
:1008200090E08223932302C0959587956A95E2F71D
:10083000FA018083089570B381E090E09C01062E58
:1008400002C0220F331F0A94E2F7872F90E0822321
:10085000932302C0959587956A95E2F7FA01808304
:100860000895E199FECF90E09FBB8EBB6DBB8CB32A
:1008700084608CBB8CB382608CBB0895E199FECF01
:1008800090E09FBB8EBB8CB381608CBB8DB3089511
:1008900090BD89B908958730F9F028F4853041F08A
:1008A000863081F036C0883009F1893049F131C095
:1008B00080B58D7F80BD80B58B7F80BD8AB18B7FF9
:1008C0008AB927C080B5826080BD80B58B7F80BD2E
:1008D0008AB18B7F8AB91DC080B58D7F80BD80B500
:1008E000846080BD8AB18B7F8AB913C080B5826075
:1008F00080BD80B5846080BD8AB18B7F8AB909C014
:1009000080B5826080BD80B5846080BD8AB184601E
:100910008AB9613019F0623029F0089580B5877F77
:1009200080BD089580B5886080BD089583E390E020
:100930000E9448048AB180618AB98AB188608AB904
:1009400061E088E00E944B0408955D9BFECF8CB966
:1009500008950F931F93CF938C01C0E003C00E94B2
:10096000A504CF5FF801EC0FF11D80818111F7CF55
:100970000E94A504CF911F910F9108955F9BFECF18
:080980008CB10895F894FFCF3B
:10098800013738392F343536783132332D63303DDD
:100998002B0302010007060504436C6F73696E6739
:1009A8002054686520444F4F52004F70656E696E41
:1009B800672054686520444F4F52004C4F414449CA
:1009C8004E472E2E2E2E0057726F6E672050617381
:1009D80073776F72640034204E756D6265727300B0
:1009E8004174206C6561737420456E7465720032C1
:1009F8002E416C7465722050617373776F72640056
:100A0800312E4F70656E2074686520646F6F7200B8
:100A1800456E746572206E6577207061737300454A
:100A28006E7465722070617373776F726400446FBF
:100A38006F72204C6F636B2053797374656D005728
:0A0A4800656C636F6D6520546F004C
:00000001FF
