:100000000C942A000C9447000C9447000C94470071
:100010000C9447000C9447000C9447000C94470044
:100020000C9447000C9447000C9447000C94470034
:100030000C9447000C9447000C9447000C94470024
:100040000C9447000C9447000C9447000C94470014
:100050000C94470011241FBECFE5D8E0DEBFCDBF12
:1000600011E0A0E6B0E0E6E8F9E002C005900D92EC
:10007000AA32B107D9F721E0AAE2B1E001C01D928E
:10008000A134B207E1F70E94D1020C94C1040C9490
:1000900000000E9470010E9461020E949504089570
:1000A0009C0190E005C0F901E90FF11D10829F5FEE
:1000B0009131C8F310922D0108950E949B01809305
:1000C0003F018D33A1F580912D018430D0F08EE277
:1000D00091E00E94A8040E943B020E94C2022FE30A
:1000E0008DE093E0215080409040E1F700C0000097
:1000F0008EE291E00E945000809140018130E9F54C
:1001000038C00E943B020E94B1022FE78AE196E0CC
:10011000215080409040E1F700C000008EE291E065
:100120000E9450000E943B020E94A102C6CF83366B
:1001300049F40E943B020E94A1028EE291E00E94DB
:100140005000BBCF882309F4B8CF90912D01903196
:1001500008F0B3CF0E94210280912D01E82FF0E03A
:10016000E25DFE4F90913F0190838F5F80932D0160
:10017000A4CF0E94BD048093600008950E945D009A
:1001800080916000813069F40E943B020E94A902C4
:100190000E945D0010922B0110922C0110922A01F6
:1001A000089580912A018F5F80932A010E94A40400
:1001B0000E943B020E94BD022FE78AE196E0215097
:1001C00080409040E1F700C000000E943B020E9486
:1001D000A102089580E00E943D04809340010E94A6
:1001E000A404809140018F3F49F40E94A9020E941B
:1001F0005D0061E080E00E943004ECCF813051F777
:1002000080912B01811119C00E943B020E9495022E
:100210000E949B0180932C0104C00E949B0180934B
:100220002C0180912C0181538230B8F70E943B024F
:100230000E94A10281E080932B0180912B010E94FA
:10024000A40480912C01813309F042C00E94A404CF
:100250000E945D0080916000813009F50E943B02A0
:100260000E94C7022FEB87E299E021508040904026
:10027000E1F700C000000E943B020E94CC022FE781
:100280008AE196E0215080409040E1F700C00000F4
:1002900010922B0110922C0110922A019BCF809179
:1002A0002A018F5F80932A010E94A4040E943B02CE
:1002B0000E94BD022FE78AE196E0215080409040E5
:1002C000E1F700C000000E943B020E94A10282CF21
:1002D000823309F07FCF0E94A4040E94BE007ACF2F
:1002E00041E064E081E40E94D80241E065E081E4FD
:1002F0000E94D80241E066E081E40E94D80241E019
:1003000067E081E40E94D80240E060E081E40E945E
:10031000D80240E061E081E40E94D80240E062E05F
:1003200081E40E94D80240E063E081E40E94D802A8
:100330008FEF8BBB0895CF92DF92EF92FF920F93D6
:100340001F93CF93DF931F92CDB7DEB7E12CF12C33
:10035000D12CC12C4CC040E0F701EB58FF4F60811D
:1003600081E40E94520300E010E031C0AE014F5F13
:100370005F4FF801EF58FF4F608181E40E94CC038A
:100380008981811122C087E893E10197F1F700C0CC
:1003900000000AC0AE014F5F5F4FF801EF58FF4FFA
:1003A000608181E40E94CC038981882399F3C7018D
:1003B000880F991F880F991F8F599F4FFC01E00FDD
:1003C000F11FC080DD24D39405C00F5F1F4F0430A0
:1003D000110564F241E0F701EB58FF4F608181E4C1
:1003E0000E945203D11008C09FEFE91AF90A84E075
:1003F000E816F1040CF4AFCF8C2D0F90DF91CF9164
:100400001F910F91FF90EF90DF90CF90089585BBE3
:1004100082B38F7D82BB82B38F7B82BB82B38068C5
:1004200082BB89EF90E00197F1F700C0000082B332
:100430008F7782BB8DEE92E00197F1F700C000004C
:10044000089585BB82B3806282BB82B38F7B82BBFF
:1004500082B3806882BB89EF90E00197F1F700C01A
:10046000000082B38F7782BB8DEE92E00197F1F7A7
:1004700000C00000089581E00E94070280E80E9409
:10048000070208950F931F93CF938C01C0E003C020
:100490000E942102CF5FF801EC0FF11D80818111D4
:1004A000F7CFCF911F910F9108958FE191E00E94B6
:1004B000420280EC0E9407028EE091E00E9442021C
:1004C00008958FEF84BB41E065E084E40E94D80288
:1004D00041E066E084E40E94D80241E067E084E401
:1004E0000E94D80287E893E10197F1F700C000006D
:1004F00088E30E9407028EE00E94070286E00E94C5
:10050000070281E00E94070280E80E9407020E9421
:1005100055029FE32DE083E0915020408040E1F7B9
:1005200000C000000E943B02089580EE90E00E940F
:10053000420280EC0E9407028FEC90E00E9442028F
:1005400008958FEF90E00E94420280EC0E94070223
:10055000089580EF90E00E94420280EC0E94070222
:10056000089580EC90E00E94420280EC0E94070215
:1005700086EB90E00E944202089587EA90E00E9494
:10058000420208958BE990E00E94420208958AE8B1
:1005900090E00E944202089589E790E00E944202A2
:1005A00008950E9449000E94EA0080E090E00895CA
:1005B000823431F118F4813439F008958334E1F153
:1005C000843409F454C0089541110CC02AB381E069
:1005D00090E002C0880F991F6A95E2F78095822308
:1005E0008ABB0895413009F05CC02AB381E090E0F5
:1005F00002C0880F991F6A95E2F7822B8ABB089583
:1006000041110CC027B381E090E002C0880F991F10
:100610006A95E2F78095822387BB0895413009F0FF
:1006200040C027B381E090E002C0880F991F6A950F
:10063000E2F7822B87BB089541110CC024B381E0FF
:1006400090E002C0880F991F6A95E2F78095822397
:1006500084BB0895413029F524B381E090E002C0C5
:10066000880F991F6A95E2F7822B84BB0895411188
:100670000CC021B381E090E002C0880F991F6A95F9
:10068000E2F78095822381BB0895413051F421B374
:1006900081E090E002C0880F991F6A95E2F7822BF3
:1006A00081BB0895823431F118F4813439F0089512
:1006B0008334E1F1843409F454C0089541110CC02D
:1006C0002BB381E090E002C0880F991F6A95E2F792
:1006D000809582238BBB0895413009F05CC02BB319
:1006E00081E090E002C0880F991F6A95E2F7822BA3
:1006F0008BBB089541110CC028B381E090E002C08B
:10070000880F991F6A95E2F78095822388BB089528
:10071000413009F040C028B381E090E002C0880F6A
:10072000991F6A95E2F7822B88BB089541110CC08E
:1007300025B381E090E002C0880F991F6A95E2F727
:100740008095822385BB0895413029F525B381E04A
:1007500090E002C0880F991F6A95E2F7822B85BB53
:10076000089541110CC022B381E090E002C0880FCF
:10077000991F6A95E2F78095822382BB08954130E4
:1007800051F422B381E090E002C0880F991F6A956E
:10079000E2F7822B82BB0895823401F118F4813490
:1007A00039F00895833481F1843409F443C0089505
:1007B00079B381E090E09C01062E02C0220F331F26
:1007C0000A94E2F7872F90E08223932302C0959545
:1007D00087956A95E2F7FA018083089576B381E000
:1007E00090E09C01062E02C0220F331F0A94E2F70C
:1007F000872F90E08223932302C0959587956A9571
:10080000E2F7FA018083089573B381E090E09C01E0
:10081000062E02C0220F331F0A94E2F7872F90E0C2
:100820008223932302C0959587956A95E2F7FA0192
:100830008083089570B381E090E09C01062E02C091
:10084000220F331F0A94E2F7872F90E0822393232D
:1008500002C0959587956A95E2F7FA01808308951D
:10086000E199FECF90E09FBB8EBB6DBB8CB38460E3
:100870008CBB8CB382608CBB0895E199FECF90E075
:100880009FBB8EBB8CB381608CBB8DB3089590BD34
:1008900089B908958730F9F028F4853041F0863021
:1008A00081F036C0883009F1893049F131C080B516
:1008B0008D7F80BD80B58B7F80BD8AB18B7F8AB9EB
:1008C00027C080B5826080BD80B58B7F80BD8AB136
:1008D0008B7F8AB91DC080B58D7F80BD80B5846057
:1008E00080BD8AB18B7F8AB913C080B5826080BD1C
:1008F00080B5846080BD8AB18B7F8AB909C080B51C
:10090000826080BD80B5846080BD8AB184608AB910
:10091000613019F0623029F0089580B5877F80BD7D
:10092000089580B5886080BD089583E390E00E94BB
:1009300047048AB180618AB98AB188608AB961E066
:1009400088E00E944A0408955D9BFECF8CB908950B
:100950000F931F93CF938C01C0E003C00E94A404A7
:10096000CF5FF801EC0FF11D80818111F7CF0E945C
:10097000A404CF911F910F9108955F9BFECF8CB17E
:060980000895F894FFCF7A
:10098600013738392F343536783132332D63303DDF
:100996002B0302010007060504436C6F73696E673B
:1009A6002054686520444F4F52004F70656E696E43
:1009B600672054686520444F4F52004C4F414449CC
:1009C6004E472E2E2E2E0057726F6E672050617383
:1009D60073776F72640034204E756D6265727300B2
:1009E6004174206C6561737420456E7465720032C3
:1009F6002E416C7465722050617373776F72640058
:100A0600312E4F70656E2074686520646F6F7200BA
:100A1600456E746572206E6577207061737300454C
:100A26006E7465722070617373776F726400446FC1
:100A36006F72204C6F636B2053797374656D00572A
:0A0A4600656C636F6D6520546F004E
:00000001FF
