:100000000C942A000C9447000C9447000C94470071
:100010000C9447000C9447000C9447000C94470044
:100020000C9447000C9447000C9447000C94470034
:100030000C9447000C9447000C9447000C94470024
:100040000C9447000C9447000C9447000C94470014
:100050000C94470011241FBECFE5D8E0DEBFCDBF12
:1000600011E0A0E6B0E0ECE5F9E002C005900D92E9
:10007000AA32B107D9F721E0AAE2B1E001C01D928E
:10008000A034B207E1F70E94BC020C94AC040C94BB
:1000900000000E945B010E944C020E9480040895AF
:1000A0009C0190E005C0F901E90FF11D10829F5FEE
:1000B0009131C8F310922C0108950E94860180931B
:1000C0003E018D33A1F580912C018430D0F08DE27A
:1000D00091E00E9493040E9426020E94AD022FE349
:1000E0008DE093E0215080409040E1F700C0000097
:1000F0008DE291E00E94500080913F018130D9F55E
:1001000036C00E9426020E949C022FE78AE196E0F8
:10011000215080409040E1F700C000008DE291E066
:100120000E9450000E9426020E948C02C6CF833695
:1001300049F40E9426020E948C028DE291E00E9406
:100140005000BBCF882309F4B8CF0E940C028091E5
:100150002C01E82FF0E0E35DFE4F90913E0190838B
:10016000803108F0AACF8F5F80932C01A6CF0E9428
:10017000A8048093600008950E945D008091600053
:10018000813059F40E9426020E9494020E945D0070
:1001900010922A0110922B0108950E9426020E94BB
:1001A000A8022FE78AE196E0215080409040E1F7D5
:1001B00000C000000E9426020E948C02089580E088
:1001C0000E94280480933F010E948F0480913F0188
:1001D0008F3F49F40E9494020E945D0061E080E03C
:1001E0000E941B04ECCF813051F780912A018111CC
:1001F00019C00E9426020E9480020E9486018093FC
:100200002B0104C00E94860180932B0180912B0159
:1002100081538230B8F70E9426020E948C0281E04E
:1002200080932A0180912A010E948F0480912B01E2
:100230008133C9F50E948F040E945D0080916000A7
:100240008130F9F40E9426020E94B2022FEB87E26D
:1002500099E0215080409040E1F700C000000E94EA
:1002600026020E94B7022FE78AE196E021508040E3
:100270009040E1F700C0000010922A0110922B017B
:100280009ECF0E9426020E94A8022FE78AE196E0F4
:10029000215080409040E1F700C000000E942602FB
:1002A0000E948C028CCF823309F089CF0E948F0488
:1002B0000E94BC0084CF41E064E081E40E94C3025C
:1002C00041E065E081E40E94C30241E066E081E430
:1002D0000E94C30241E067E081E40E94C30240E063
:1002E00060E081E40E94C30240E061E081E40E949A
:1002F000C30240E062E081E40E94C30240E063E0A8
:1003000081E40E94C3028FEF8BBB0895CF92DF92EE
:10031000EF92FF920F931F93CF93DF931F92CDB76E
:10032000DEB7E12CF12CD12CC12C4CC040E0F70100
:10033000EB58FF4F608181E40E943D0300E010E034
:1003400031C0AE014F5F5F4FF801EF58FF4F608142
:1003500081E40E94B7038981811122C087E893E17B
:100360000197F1F700C000000AC0AE014F5F5F4F78
:10037000F801EF58FF4F608181E40E94B703898143
:10038000882399F3C701880F991F880F991F8F59E8
:100390009F4FFC01E00FF11FC080DD24D39405C006
:1003A0000F5F1F4F0430110564F241E0F701EB5875
:1003B000FF4F608181E40E943D03D11008C09FEF90
:1003C000E91AF90A84E0E816F1040CF4AFCF8C2D99
:1003D0000F90DF91CF911F910F91FF90EF90DF90E1
:1003E000CF90089585BB82B38F7D82BB82B38F7B14
:1003F00082BB82B3806882BB89EF90E00197F1F7FE
:1004000000C0000082B38F7782BB8DEE92E001972F
:10041000F1F700C00000089585BB82B3806282BB03
:1004200082B38F7B82BB82B3806882BB89EF90E00E
:100430000197F1F700C0000082B38F7782BB8DEE89
:1004400092E00197F1F700C00000089581E00E945A
:10045000F20180E80E94F20108950F931F93CF9359
:100460008C01C0E003C00E940C02CF5FF801EC0FCA
:10047000F11D80818111F7CFCF911F910F910895C8
:100480008FE191E00E942D0280EC0E94F2018EE04B
:1004900091E00E942D0208958FEF84BB41E065E05A
:1004A00084E40E94C30241E066E084E40E94C30247
:1004B00041E067E084E40E94C30287E893E101978A
:1004C000F1F700C0000088E30E94F2018EE00E9474
:1004D000F20186E00E94F20181E00E94F20180E8D0
:1004E0000E94F2010E9440029FE32DE083E09150C0
:1004F00020408040E1F700C000000E9426020895DD
:1005000080EE90E00E942D0280EC0E94F2018FECC0
:1005100090E00E942D0208958FEF90E00E942D023E
:1005200080EC0E94F201089580EF90E00E942D027D
:1005300080EC0E94F201089580EC90E00E942D0270
:1005400080EC0E94F20186EB90E00E942D0208955B
:1005500087EA90E00E942D0208958BE990E00E94C6
:100560002D0208958AE890E00E942D02089589E7FF
:1005700090E00E942D0208950E9449000E94DF0031
:1005800080E090E00895823431F118F4813439F03C
:1005900008958334E1F1843409F454C0089541117D
:1005A0000CC02AB381E090E002C0880F991F6A95C1
:1005B000E2F7809582238ABB0895413009F05CC040
:1005C0002AB381E090E002C0880F991F6A95E2F794
:1005D000822B8ABB089541110CC027B381E090E0C3
:1005E00002C0880F991F6A95E2F78095822387BB26
:1005F0000895413009F040C027B381E090E002C087
:10060000880F991F6A95E2F7822B87BB08954111E5
:100610000CC024B381E090E002C0880F991F6A9556
:10062000E2F78095822384BB0895413029F524B3F5
:1006300081E090E002C0880F991F6A95E2F7822B53
:1006400084BB089541110CC021B381E090E002C049
:10065000880F991F6A95E2F78095822381BB0895E0
:10066000413051F421B381E090E002C0880F991F1E
:100670006A95E2F7822B81BB0895823431F118F438
:10068000813439F008958334E1F1843409F454C09D
:10069000089541110CC02BB381E090E002C0880F97
:1006A000991F6A95E2F7809582238BBB08954130AC
:1006B00009F05CC02BB381E090E002C0880F991F65
:1006C0006A95E2F7822B8BBB089541110CC028B3C9
:1006D00081E090E002C0880F991F6A95E2F780954B
:1006E000822388BB0895413009F040C028B381E0DF
:1006F00090E002C0880F991F6A95E2F7822B88BBB1
:10070000089541110CC025B381E090E002C0880F2C
:10071000991F6A95E2F78095822385BB0895413041
:1007200029F525B381E090E002C0880F991F6A95F2
:10073000E2F7822B85BB089541110CC022B381E002
:1007400090E002C0880F991F6A95E2F78095822396
:1007500082BB0895413051F422B381E090E002C0A1
:10076000880F991F6A95E2F7822B82BB0895823425
:1007700001F118F4813439F00895833481F184341F
:1007800009F443C0089579B381E090E09C01062EFE
:1007900002C0220F331F0A94E2F7872F90E08223D2
:1007A000932302C0959587956A95E2F7FA018083B5
:1007B000089576B381E090E09C01062E02C0220FDE
:1007C000331F0A94E2F7872F90E08223932302C01D
:1007D000959587956A95E2F7FA018083089573B33A
:1007E00081E090E09C01062E02C0220F331F0A9484
:1007F000E2F7872F90E08223932302C09595879597
:100800006A95E2F7FA018083089570B381E090E081
:100810009C01062E02C0220F331F0A94E2F7872F95
:1008200090E08223932302C0959587956A95E2F71D
:10083000FA0180830895E199FECF90E09FBB8EBBC3
:100840006DBB8CB384608CBB8CB382608CBB089511
:10085000E199FECF90E09FBB8EBB8CB381608CBBD7
:100860008DB3089590BD89B908958730F9F028F4C3
:10087000853041F0863081F036C0883009F189300A
:1008800049F131C080B58D7F80BD80B58B7F80BD43
:100890008AB18B7F8AB927C080B5826080BD80B560
:1008A0008B7F80BD8AB18B7F8AB91DC080B58D7F5B
:1008B00080BD80B5846080BD8AB18B7F8AB913C04A
:1008C00080B5826080BD80B5846080BD8AB18B7F39
:1008D0008AB909C080B5826080BD80B5846080BD62
:1008E0008AB184608AB9613019F0623029F00895C4
:1008F00080B5877F80BD089580B5886080BD0895EC
:1009000083E390E00E9432048AB180618AB98AB19F
:1009100088608AB961E088E00E94350408955D9B93
:10092000FECF8CB908950F931F93CF938C01C0E035
:1009300003C00E948F04CF5FF801EC0FF11D80818E
:100940008111F7CF0E948F04CF911F910F910895CD
:0C0950005F9BFECF8CB10895F894FFCFA0
:10095C00013738392F343536783132332D63303D09
:10096C002B0302010007060504436C6F73696E6765
:10097C002054686520444F4F52004F70656E696E6D
:10098C00672054686520444F4F52004C4F414449F6
:10099C004E472E2E2E2E0057726F6E6720506173AD
:1009AC0073776F72640034204E756D6265727300DC
:1009BC004174206C6561737420456E7465720032ED
:1009CC002E416C7465722050617373776F72640082
:1009DC00312E4F70656E2074686520646F6F7200E5
:1009EC00456E746572206E65772070617373004577
:1009FC006E7465722070617373776F726400446FEC
:100A0C006F72204C6F636B2053797374656D005754
:0A0A1C00656C636F6D6520546F0078
:00000001FF
