:100000000C942A000C943C000C943C000C943C0092
:100010000C943C000C943C000C943C000C943C0070
:100020000C943C000C943C000C943C000C943C0060
:100030000C943C000C943C000C943C000C943C0050
:100040000C943C000C943C000C943C000C943C0040
:100050000C943C0011241FBECFE5D8E0DEBFCDBF1D
:1000600020E0A0E6B0E001C01D92A036B207E1F7A3
:100070000E943E000C9474000C9400000E945C00EE
:100080002FE38DE093E0215080409040E1F700C0E5
:10009000000081E00E9470002FE38DE093E021508A
:1000A00080409040E1F700C0000080E00E947000B6
:1000B000E7CF90BD89B9089583E390E00E9459008D
:1000C0008AB188608AB98AB180618AB980B580684E
:1000D00080BD80B5826080BD80B5846080BD08959C
:0C00E0005D9BFECF8CB90895F894FFCF13
:00000001FF
