:100000000C942A000C9447000C9447000C94470071
:100010000C9447000C9447000C9447000C94470044
:100020000C9447000C9447000C9447000C94470034
:100030000C9447000C9447000C9447000C94470024
:100040000C9447000C9447000C9447000C94470014
:100050000C94470011241FBECFE5D8E0DEBFCDBF12
:1000600011E0A0E6B0E0EAE2F9E002C005900D92EE
:10007000AC32B107D9F721E0ACE2B1E001C01D928A
:10008000A234B207E1F70E94A7020C9493040C94E7
:1000900000000E944E010E943F020E946B040895DE
:1000A0009C0190E005C0F901E90FF11D10829F5FEE
:1000B0009131C8F310922E0108950E947901809326
:1000C00040018D3381F580912E018430B0F08FE2B4
:1000D00091E00E947E040E9419020E9498022FE380
:1000E0008DE093E0215080409040E1F700C0000097
:1000F0008FE291E00E94500008950E9419020E9430
:1001000087022FE78AE196E0215080409040E1F796
:1001100000C000008FE291E00E9450000E9419028E
:100120000E947F02CACF833649F40E9419020E94BE
:100130007F028FE291E00E945000BFCF882309F434
:10014000BCCF0E94FF0180912E01E82FF0E0E15D1D
:10015000FE4F909140019083803108F0AECF8F5FC9
:1001600080932E01AACF0E945D00809160008130B3
:1001700079F481E690E00E947E040E9419020E94B8
:100180007F020E945D0010922C0110922D010895B3
:100190000E9419020E9493022FE78AE196E0215003
:1001A00080409040E1F700C000000E9419020E94C8
:1001B0007F02089580E00E941304809341010E9411
:1001C0007A04809141018F3F49F40E947F020E948E
:1001D0005D0061E080E00E940604ECCF813051F7C1
:1001E00080912C01811119C00E9419020E94730292
:1001F0000E94790180932D0104C00E9479018093AF
:100200002D0180912D0181538230B8F70E9419028F
:100210000E947F0281E080932C0180912D01813327
:10022000B9F50E945D00809160008130F9F40E9470
:1002300019020E949D022FE382E49FE0215080403A
:100240009040E1F700C000000E9419020E94A20243
:100250002FE78AE196E0215080409040E1F700C00E
:10026000000010922C0110922D01A4CF0E941902BF
:100270000E9493022FE78AE196E02150804090404F
:10028000E1F700C000000E9419020E947F0292CF95
:10029000823309F08FCF0E94B3008CCF41E064E03D
:1002A00081E40E94AE0241E065E081E40E94AE027A
:1002B00041E066E081E40E94AE0241E067E081E453
:1002C0000E94AE0240E060E081E40E94AE0240E0A5
:1002D00061E081E40E94AE0240E062E081E40E94BD
:1002E000AE0240E063E081E40E94AE028FEF8BBB80
:1002F0000895CF92DF92EF92FF920F931F93CF93C7
:10030000DF931F92CDB7DEB7E12CF12CD12CC12C9D
:100310004CC040E0F701EA57FF4F608181E40E9442
:10032000280300E010E031C0AE014F5F5F4FF801DD
:10033000EE57FF4F608181E40E94A2038981811101
:1003400022C087E893E10197F1F700C000000AC0DE
:10035000AE014F5F5F4FF801EE57FF4F608181E4C0
:100360000E94A2038981882399F3C701880F991FEE
:10037000880F991F8E589F4FFC01E00FF11FC0801E
:10038000DD24D39405C00F5F1F4F0430110564F2C4
:1003900041E0F701EA57FF4F608181E40E942803A2
:1003A000D11008C09FEFE91AF90A84E0E816F104B9
:1003B0000CF4AFCF8C2D0F90DF91CF911F910F9147
:1003C000FF90EF90DF90CF90089585BB82B38F7D33
:1003D00082BB82B38F7B82BB82B3806882BB89EF92
:1003E00090E00197F1F700C0000082B38F7782BBE5
:1003F0008DEE92E00197F1F700C00000089585BBF3
:1004000082B3806282BB82B38F7B82BB82B38068FF
:1004100082BB89EF90E00197F1F700C0000082B342
:100420008F7782BB8DEE92E00197F1F700C000005C
:10043000089581E00E94E50180E80E94E5010895A9
:100440000F931F93CF938C01C0E003C00E94FF0164
:10045000CF5FF801EC0FF11D80818111F7CFCF91B3
:100460001F910F91089581E291E00E94200280EC9B
:100470000E94E50180E191E00E94200208958FEF43
:1004800084BB41E065E084E40E94AE0241E066E0A6
:1004900084E40E94AE0241E067E084E40E94AE0280
:1004A00087E893E10197F1F700C0000088E30E941C
:1004B000E5018EE00E94E50186E00E94E50181E011
:1004C0000E94E50180E80E94E5010E9433029FE35B
:1004D0002DE083E0915020408040E1F700C0000013
:1004E0000E941902089581EF90E00E94200280ECA2
:1004F0000E94E50180EE90E00E942002089581E0D4
:1005000091E00E94200280EC0E94E501089581EDB7
:1005100090E00E94200280EC0E94E50187EC90E0D0
:100520000E942002089588EB90E00E942002089526
:100530008CEA90E00E94200208958BE990E00E94EE
:10054000200208958AE890E00E94200208950E9407
:1005500049000E94DA0080E090E00895823431F191
:1005600018F4813439F008958334E1F1843409F4C6
:1005700054C0089541110CC02AB381E090E002C03C
:10058000880F991F6A95E2F7809582238ABB0895A8
:10059000413009F05CC02AB381E090E002C0880FCE
:1005A000991F6A95E2F7822B8ABB089541110CC00E
:1005B00027B381E090E002C0880F991F6A95E2F7A7
:1005C0008095822387BB0895413009F040C027B34E
:1005D00081E090E002C0880F991F6A95E2F7822BB4
:1005E00087BB089541110CC024B381E090E002C0A4
:1005F000880F991F6A95E2F78095822384BB08953E
:10060000413029F524B381E090E002C0880F991FA2
:100610006A95E2F7822B84BB089541110CC021B387
:1006200081E090E002C0880F991F6A95E2F78095FB
:10063000822381BB0895413051F421B381E090E0E1
:1006400002C0880F991F6A95E2F7822B81BB08953B
:10065000823431F118F4813439F008958334E1F1B2
:10066000843409F454C0089541110CC02BB381E0C7
:1006700090E002C0880F991F6A95E2F78095822367
:100680008BBB0895413009F05CC02BB381E090E052
:1006900002C0880F991F6A95E2F7822B8BBB0895E1
:1006A00041110CC028B381E090E002C0880F991F6F
:1006B0006A95E2F78095822388BB0895413009F05E
:1006C00040C028B381E090E002C0880F991F6A956E
:1006D000E2F7822B88BB089541110CC025B381E05D
:1006E00090E002C0880F991F6A95E2F780958223F7
:1006F00085BB0895413029F525B381E090E002C023
:10070000880F991F6A95E2F7822B85BB08954111E6
:100710000CC022B381E090E002C0880F991F6A9557
:10072000E2F78095822382BB0895413051F422B3D1
:1007300081E090E002C0880F991F6A95E2F7822B52
:1007400082BB0895823401F118F4813439F00895A0
:10075000833481F1843409F443C0089579B381E08E
:1007600090E09C01062E02C0220F331F0A94E2F78C
:10077000872F90E08223932302C0959587956A95F1
:10078000E2F7FA018083089576B381E090E09C015E
:10079000062E02C0220F331F0A94E2F7872F90E043
:1007A0008223932302C0959587956A95E2F7FA0113
:1007B0008083089573B381E090E09C01062E02C00F
:1007C000220F331F0A94E2F7872F90E082239323AE
:1007D00002C0959587956A95E2F7FA01808308959E
:1007E00070B381E090E09C01062E02C0220F331FFF
:1007F0000A94E2F7872F90E08223932302C0959515
:1008000087956A95E2F7FA0180830895E199FECF12
:1008100090E09FBB8EBB6DBB8CB384608CBB8CB3F4
:1008200082608CBB0895E199FECF90E09FBB8EBBA8
:100830008CB381608CBB8DB3089590BD89B9089548
:100840008730F9F028F4853041F0863081F036C0E9
:10085000883009F1893049F131C080B58D7F80BD84
:1008600080B58B7F80BD8AB18B7F8AB927C080B568
:10087000826080BD80B58B7F80BD8AB18B7F8AB955
:100880001DC080B58D7F80BD80B5846080BD8AB17C
:100890008B7F8AB913C080B5826080BD80B58460CB
:1008A00080BD8AB18B7F8AB909C080B5826080BD66
:1008B00080B5846080BD8AB184608AB9613019F0E6
:1008C000623029F0089580B5877F80BD089580B596
:1008D000886080BD089583E390E00E941D048AB182
:1008E00080618AB98AB188608AB961E088E00E9433
:1008F000200408955D9BFECF8CB908950F931F933C
:10090000CF938C01C0E003C00E947A04CF5FF8014E
:10091000EC0FF11D80818111F7CF0E947A04CF91F5
:0A0920001F910F910895F894FFCF86
:10092A0001FFFFFFFFFFFFFFFFFFFFFFFFFFFFFFCB
:10093A00FF003738392F343536783132332D63306A
:10094A003D2B0302010007060504436C6F73696EB1
:10095A00672054686520444F4F52004F70656E6996
:10096A006E672054686520444F4F52004C4F4144F3
:10097A00494E472E2E2E2E0057726F6E67205061F9
:10098A007373776F72640034204E756D626572738B
:10099A00004174206C6561737420456E7465720041
:1009AA00322E416C7465722050617373776F726472
:1009BA0000312E4F70656E2074686520646F6F7207
:1009CA0000456E7465722070617373776F7264008C
:1009DA00446F6F72204C6F636B2053797374656D2B
:0C09EA000057656C636F6D6520546F0052
:00000001FF
